{
  "contractName": "NftMarket",
  "abi": [
    {
      "inputs": [],
      "stateMutability": "nonpayable",
      "type": "constructor"
    },
    {
      "anonymous": false,
      "inputs": [
        {
          "indexed": true,
          "internalType": "address",
          "name": "owner",
          "type": "address"
        },
        {
          "indexed": true,
          "internalType": "address",
          "name": "approved",
          "type": "address"
        },
        {
          "indexed": true,
          "internalType": "uint256",
          "name": "tokenId",
          "type": "uint256"
        }
      ],
      "name": "Approval",
      "type": "event"
    },
    {
      "anonymous": false,
      "inputs": [
        {
          "indexed": true,
          "internalType": "address",
          "name": "owner",
          "type": "address"
        },
        {
          "indexed": true,
          "internalType": "address",
          "name": "operator",
          "type": "address"
        },
        {
          "indexed": false,
          "internalType": "bool",
          "name": "approved",
          "type": "bool"
        }
      ],
      "name": "ApprovalForAll",
      "type": "event"
    },
    {
      "anonymous": false,
      "inputs": [
        {
          "indexed": false,
          "internalType": "uint256",
          "name": "tokenId",
          "type": "uint256"
        },
        {
          "indexed": false,
          "internalType": "uint256",
          "name": "price",
          "type": "uint256"
        },
        {
          "indexed": false,
          "internalType": "address",
          "name": "creator",
          "type": "address"
        },
        {
          "indexed": false,
          "internalType": "bool",
          "name": "isListed",
          "type": "bool"
        }
      ],
      "name": "NftItemCreated",
      "type": "event"
    },
    {
      "anonymous": false,
      "inputs": [
        {
          "indexed": true,
          "internalType": "address",
          "name": "previousOwner",
          "type": "address"
        },
        {
          "indexed": true,
          "internalType": "address",
          "name": "newOwner",
          "type": "address"
        }
      ],
      "name": "OwnershipTransferred",
      "type": "event"
    },
    {
      "anonymous": false,
      "inputs": [
        {
          "indexed": true,
          "internalType": "address",
          "name": "from",
          "type": "address"
        },
        {
          "indexed": true,
          "internalType": "address",
          "name": "to",
          "type": "address"
        },
        {
          "indexed": true,
          "internalType": "uint256",
          "name": "tokenId",
          "type": "uint256"
        }
      ],
      "name": "Transfer",
      "type": "event"
    },
    {
      "inputs": [
        {
          "internalType": "address",
          "name": "to",
          "type": "address"
        },
        {
          "internalType": "uint256",
          "name": "tokenId",
          "type": "uint256"
        }
      ],
      "name": "approve",
      "outputs": [],
      "stateMutability": "nonpayable",
      "type": "function"
    },
    {
      "inputs": [
        {
          "internalType": "address",
          "name": "owner",
          "type": "address"
        }
      ],
      "name": "balanceOf",
      "outputs": [
        {
          "internalType": "uint256",
          "name": "",
          "type": "uint256"
        }
      ],
      "stateMutability": "view",
      "type": "function",
      "constant": true
    },
    {
      "inputs": [
        {
          "internalType": "uint256",
          "name": "tokenId",
          "type": "uint256"
        }
      ],
      "name": "getApproved",
      "outputs": [
        {
          "internalType": "address",
          "name": "",
          "type": "address"
        }
      ],
      "stateMutability": "view",
      "type": "function",
      "constant": true
    },
    {
      "inputs": [
        {
          "internalType": "address",
          "name": "owner",
          "type": "address"
        },
        {
          "internalType": "address",
          "name": "operator",
          "type": "address"
        }
      ],
      "name": "isApprovedForAll",
      "outputs": [
        {
          "internalType": "bool",
          "name": "",
          "type": "bool"
        }
      ],
      "stateMutability": "view",
      "type": "function",
      "constant": true
    },
    {
      "inputs": [],
      "name": "listingPrice",
      "outputs": [
        {
          "internalType": "uint256",
          "name": "",
          "type": "uint256"
        }
      ],
      "stateMutability": "view",
      "type": "function",
      "constant": true
    },
    {
      "inputs": [],
      "name": "name",
      "outputs": [
        {
          "internalType": "string",
          "name": "",
          "type": "string"
        }
      ],
      "stateMutability": "view",
      "type": "function",
      "constant": true
    },
    {
      "inputs": [],
      "name": "owner",
      "outputs": [
        {
          "internalType": "address",
          "name": "",
          "type": "address"
        }
      ],
      "stateMutability": "view",
      "type": "function",
      "constant": true
    },
    {
      "inputs": [
        {
          "internalType": "uint256",
          "name": "tokenId",
          "type": "uint256"
        }
      ],
      "name": "ownerOf",
      "outputs": [
        {
          "internalType": "address",
          "name": "",
          "type": "address"
        }
      ],
      "stateMutability": "view",
      "type": "function",
      "constant": true
    },
    {
      "inputs": [],
      "name": "renounceOwnership",
      "outputs": [],
      "stateMutability": "nonpayable",
      "type": "function"
    },
    {
      "inputs": [
        {
          "internalType": "address",
          "name": "from",
          "type": "address"
        },
        {
          "internalType": "address",
          "name": "to",
          "type": "address"
        },
        {
          "internalType": "uint256",
          "name": "tokenId",
          "type": "uint256"
        }
      ],
      "name": "safeTransferFrom",
      "outputs": [],
      "stateMutability": "nonpayable",
      "type": "function"
    },
    {
      "inputs": [
        {
          "internalType": "address",
          "name": "from",
          "type": "address"
        },
        {
          "internalType": "address",
          "name": "to",
          "type": "address"
        },
        {
          "internalType": "uint256",
          "name": "tokenId",
          "type": "uint256"
        },
        {
          "internalType": "bytes",
          "name": "_data",
          "type": "bytes"
        }
      ],
      "name": "safeTransferFrom",
      "outputs": [],
      "stateMutability": "nonpayable",
      "type": "function"
    },
    {
      "inputs": [
        {
          "internalType": "address",
          "name": "operator",
          "type": "address"
        },
        {
          "internalType": "bool",
          "name": "approved",
          "type": "bool"
        }
      ],
      "name": "setApprovalForAll",
      "outputs": [],
      "stateMutability": "nonpayable",
      "type": "function"
    },
    {
      "inputs": [
        {
          "internalType": "bytes4",
          "name": "interfaceId",
          "type": "bytes4"
        }
      ],
      "name": "supportsInterface",
      "outputs": [
        {
          "internalType": "bool",
          "name": "",
          "type": "bool"
        }
      ],
      "stateMutability": "view",
      "type": "function",
      "constant": true
    },
    {
      "inputs": [],
      "name": "symbol",
      "outputs": [
        {
          "internalType": "string",
          "name": "",
          "type": "string"
        }
      ],
      "stateMutability": "view",
      "type": "function",
      "constant": true
    },
    {
      "inputs": [
        {
          "internalType": "uint256",
          "name": "tokenId",
          "type": "uint256"
        }
      ],
      "name": "tokenURI",
      "outputs": [
        {
          "internalType": "string",
          "name": "",
          "type": "string"
        }
      ],
      "stateMutability": "view",
      "type": "function",
      "constant": true
    },
    {
      "inputs": [
        {
          "internalType": "address",
          "name": "from",
          "type": "address"
        },
        {
          "internalType": "address",
          "name": "to",
          "type": "address"
        },
        {
          "internalType": "uint256",
          "name": "tokenId",
          "type": "uint256"
        }
      ],
      "name": "transferFrom",
      "outputs": [],
      "stateMutability": "nonpayable",
      "type": "function"
    },
    {
      "inputs": [
        {
          "internalType": "address",
          "name": "newOwner",
          "type": "address"
        }
      ],
      "name": "transferOwnership",
      "outputs": [],
      "stateMutability": "nonpayable",
      "type": "function"
    },
    {
      "inputs": [
        {
          "internalType": "uint256",
          "name": "newPrice",
          "type": "uint256"
        }
      ],
      "name": "setListingPrice",
      "outputs": [],
      "stateMutability": "nonpayable",
      "type": "function"
    },
    {
      "inputs": [
        {
          "internalType": "uint256",
          "name": "tokenId",
          "type": "uint256"
        }
      ],
      "name": "getNftItem",
      "outputs": [
        {
          "components": [
            {
              "internalType": "uint256",
              "name": "tokenId",
              "type": "uint256"
            },
            {
              "internalType": "uint256",
              "name": "price",
              "type": "uint256"
            },
            {
              "internalType": "address",
              "name": "creator",
              "type": "address"
            },
            {
              "internalType": "bool",
              "name": "isListed",
              "type": "bool"
            }
          ],
          "internalType": "struct NftMarket.NftItem",
          "name": "",
          "type": "tuple"
        }
      ],
      "stateMutability": "view",
      "type": "function",
      "constant": true
    },
    {
      "inputs": [],
      "name": "getLastBoughtNFT",
      "outputs": [
        {
          "components": [
            {
              "internalType": "uint256",
              "name": "tokenId",
              "type": "uint256"
            },
            {
              "internalType": "uint256",
              "name": "price",
              "type": "uint256"
            },
            {
              "internalType": "address",
              "name": "creator",
              "type": "address"
            },
            {
              "internalType": "bool",
              "name": "isListed",
              "type": "bool"
            }
          ],
          "internalType": "struct NftMarket.NftItem",
          "name": "",
          "type": "tuple"
        }
      ],
      "stateMutability": "view",
      "type": "function",
      "constant": true
    },
    {
      "inputs": [],
      "name": "listedItemsCount",
      "outputs": [
        {
          "internalType": "uint256",
          "name": "",
          "type": "uint256"
        }
      ],
      "stateMutability": "view",
      "type": "function",
      "constant": true
    },
    {
      "inputs": [
        {
          "internalType": "string",
          "name": "tokenURI",
          "type": "string"
        }
      ],
      "name": "tokenURIExists",
      "outputs": [
        {
          "internalType": "bool",
          "name": "",
          "type": "bool"
        }
      ],
      "stateMutability": "view",
      "type": "function",
      "constant": true
    },
    {
      "inputs": [],
      "name": "totalSupply",
      "outputs": [
        {
          "internalType": "uint256",
          "name": "",
          "type": "uint256"
        }
      ],
      "stateMutability": "view",
      "type": "function",
      "constant": true
    },
    {
      "inputs": [
        {
          "internalType": "uint256",
          "name": "index",
          "type": "uint256"
        }
      ],
      "name": "tokenByIndex",
      "outputs": [
        {
          "internalType": "uint256",
          "name": "",
          "type": "uint256"
        }
      ],
      "stateMutability": "view",
      "type": "function",
      "constant": true
    },
    {
      "inputs": [
        {
          "internalType": "address",
          "name": "owner",
          "type": "address"
        },
        {
          "internalType": "uint256",
          "name": "index",
          "type": "uint256"
        }
      ],
      "name": "tokenOfOwnerByIndex",
      "outputs": [
        {
          "internalType": "uint256",
          "name": "",
          "type": "uint256"
        }
      ],
      "stateMutability": "view",
      "type": "function",
      "constant": true
    },
    {
      "inputs": [],
      "name": "getAllNftsOnSale",
      "outputs": [
        {
          "components": [
            {
              "internalType": "uint256",
              "name": "tokenId",
              "type": "uint256"
            },
            {
              "internalType": "uint256",
              "name": "price",
              "type": "uint256"
            },
            {
              "internalType": "address",
              "name": "creator",
              "type": "address"
            },
            {
              "internalType": "bool",
              "name": "isListed",
              "type": "bool"
            }
          ],
          "internalType": "struct NftMarket.NftItem[]",
          "name": "",
          "type": "tuple[]"
        }
      ],
      "stateMutability": "view",
      "type": "function",
      "constant": true
    },
    {
      "inputs": [],
      "name": "getOwnedNfts",
      "outputs": [
        {
          "components": [
            {
              "internalType": "uint256",
              "name": "tokenId",
              "type": "uint256"
            },
            {
              "internalType": "uint256",
              "name": "price",
              "type": "uint256"
            },
            {
              "internalType": "address",
              "name": "creator",
              "type": "address"
            },
            {
              "internalType": "bool",
              "name": "isListed",
              "type": "bool"
            }
          ],
          "internalType": "struct NftMarket.NftItem[]",
          "name": "",
          "type": "tuple[]"
        }
      ],
      "stateMutability": "view",
      "type": "function",
      "constant": true
    },
    {
      "inputs": [
        {
          "internalType": "string",
          "name": "tokenURI",
          "type": "string"
        },
        {
          "internalType": "uint256",
          "name": "price",
          "type": "uint256"
        }
      ],
      "name": "mintToken",
      "outputs": [
        {
          "internalType": "uint256",
          "name": "",
          "type": "uint256"
        }
      ],
      "stateMutability": "payable",
      "type": "function",
      "payable": true
    },
    {
      "inputs": [
        {
          "internalType": "uint256",
          "name": "tokenId",
          "type": "uint256"
        }
      ],
      "name": "buyNft",
      "outputs": [],
      "stateMutability": "payable",
      "type": "function",
      "payable": true
    },
    {
      "inputs": [
        {
          "internalType": "uint256",
          "name": "tokenId",
          "type": "uint256"
        },
        {
          "internalType": "uint256",
          "name": "newPrice",
          "type": "uint256"
        }
      ],
      "name": "placeNftOnSale",
      "outputs": [],
      "stateMutability": "payable",
      "type": "function",
      "payable": true
    },
    {
      "inputs": [
        {
          "internalType": "uint256",
          "name": "tokenId",
          "type": "uint256"
        }
      ],
      "name": "unlistNft",
      "outputs": [],
      "stateMutability": "payable",
      "type": "function",
      "payable": true
    }
  ],
  "bytecode": "0x60806040526658d15e176280006008553480156200001c57600080fd5b506040518060400160405280600a81526020017f506f6b656d6f6e4e4654000000000000000000000000000000000000000000008152506040518060400160405280600481526020017f504e46540000000000000000000000000000000000000000000000000000000081525081600090816200009a91906200041d565b508060019081620000ac91906200041d565b505050620000cf620000c3620000d560201b60201c565b620000dd60201b60201c565b62000504565b600033905090565b6000600760009054906101000a900473ffffffffffffffffffffffffffffffffffffffff16905081600760006101000a81548173ffffffffffffffffffffffffffffffffffffffff021916908373ffffffffffffffffffffffffffffffffffffffff1602179055508173ffffffffffffffffffffffffffffffffffffffff168173ffffffffffffffffffffffffffffffffffffffff167f8be0079c531659141344cd1fd0a4f28419497f9722a3daafe3b4186f6b6457e060405160405180910390a35050565b600081519050919050565b7f4e487b7100000000000000000000000000000000000000000000000000000000600052604160045260246000fd5b7f4e487b7100000000000000000000000000000000000000000000000000000000600052602260045260246000fd5b600060028204905060018216806200022557607f821691505b6020821081036200023b576200023a620001dd565b5b50919050565b60008190508160005260206000209050919050565b60006020601f8301049050919050565b600082821b905092915050565b600060088302620002a57fffffffffffffffffffffffffffffffffffffffffffffffffffffffffffffffff8262000266565b620002b1868362000266565b95508019841693508086168417925050509392505050565b6000819050919050565b6000819050919050565b6000620002fe620002f8620002f284620002c9565b620002d3565b620002c9565b9050919050565b6000819050919050565b6200031a83620002dd565b62000332620003298262000305565b84845462000273565b825550505050565b600090565b620003496200033a565b620003568184846200030f565b505050565b5b818110156200037e57620003726000826200033f565b6001810190506200035c565b5050565b601f821115620003cd57620003978162000241565b620003a28462000256565b81016020851015620003b2578190505b620003ca620003c18562000256565b8301826200035b565b50505b505050565b600082821c905092915050565b6000620003f260001984600802620003d2565b1980831691505092915050565b60006200040d8383620003df565b9150826002028217905092915050565b6200042882620001a3565b67ffffffffffffffff811115620004445762000443620001ae565b5b6200045082546200020c565b6200045d82828562000382565b600060209050601f83116001811462000495576000841562000480578287015190505b6200048c8582620003ff565b865550620004fc565b601f198416620004a58662000241565b60005b82811015620004cf57848901518255600182019150602085019450602081019050620004a8565b86831015620004ef5784890151620004eb601f891682620003df565b8355505b6001600288020188555050505b505050505050565b614e7480620005146000396000f3fe6080604052600436106101d85760003560e01c80636f1a0af511610102578063a22cb46511610095578063c87b56dd11610064578063c87b56dd146106ae578063ccb4918d146106eb578063e985e9c514610716578063f2fde38b14610753576101d8565b8063a22cb46514610601578063b88d4fde1461062a578063c046372c14610653578063c78f19f914610683576101d8565b80637c726b69116100d15780637c726b69146105665780638da5cb5b1461058f57806395d89b41146105ba5780639e75689c146105e5576101d8565b80636f1a0af5146104aa57806370a08231146104e757806370cbcb4314610524578063715018a61461054f576101d8565b806323b872dd1161017a57806342842e0e1161014957806342842e0e146103ca57806343d32ae7146103f35780634f6ccce7146104305780636352211e1461046d576101d8565b806323b872dd1461031d578063243adbdd146103465780632f745c591461036257806336b536be1461039f576101d8565b8063095ea7b3116101b6578063095ea7b3146102825780631791afdb146102ab57806318160ddd146102d657806321f422e514610301576101d8565b806301ffc9a7146101dd57806306fdde031461021a578063081812fc14610245575b600080fd5b3480156101e957600080fd5b5061020460048036038101906101ff9190613152565b61077c565b604051610211919061319a565b60405180910390f35b34801561022657600080fd5b5061022f61085e565b60405161023c9190613245565b60405180910390f35b34801561025157600080fd5b5061026c6004803603810190610267919061329d565b6108f0565b604051610279919061330b565b60405180910390f35b34801561028e57600080fd5b506102a960048036038101906102a49190613352565b610975565b005b3480156102b757600080fd5b506102c0610a8c565b6040516102cd9190613414565b60405180910390f35b3480156102e257600080fd5b506102eb610b3e565b6040516102f8919061343e565b60405180910390f35b61031b60048036038101906103169190613459565b610b4b565b005b34801561032957600080fd5b50610344600480360381019061033f9190613499565b610cc7565b005b610360600480360381019061035b919061329d565b610d27565b005b34801561036e57600080fd5b5061038960048036038101906103849190613352565b610e96565b604051610396919061343e565b60405180910390f35b3480156103ab57600080fd5b506103b4610f3b565b6040516103c191906135f0565b60405180910390f35b3480156103d657600080fd5b506103f160048036038101906103ec9190613499565b6110d5565b005b3480156103ff57600080fd5b5061041a60048036038101906104159190613747565b6110f5565b604051610427919061319a565b60405180910390f35b34801561043c57600080fd5b506104576004803603810190610452919061329d565b611131565b604051610464919061343e565b60405180910390f35b34801561047957600080fd5b50610494600480360381019061048f919061329d565b6111a2565b6040516104a1919061330b565b60405180910390f35b3480156104b657600080fd5b506104d160048036038101906104cc919061329d565b611253565b6040516104de9190613414565b60405180910390f35b3480156104f357600080fd5b5061050e60048036038101906105099190613790565b611305565b60405161051b919061343e565b60405180910390f35b34801561053057600080fd5b506105396113bc565b60405161054691906135f0565b60405180910390f35b34801561055b57600080fd5b50610564611520565b005b34801561057257600080fd5b5061058d6004803603810190610588919061329d565b6115a8565b005b34801561059b57600080fd5b506105a4611671565b6040516105b1919061330b565b60405180910390f35b3480156105c657600080fd5b506105cf61169b565b6040516105dc9190613245565b60405180910390f35b6105ff60048036038101906105fa919061329d565b61172d565b005b34801561060d57600080fd5b50610628600480360381019061062391906137e9565b611849565b005b34801561063657600080fd5b50610651600480360381019061064c91906138ca565b61185f565b005b61066d6004803603810190610668919061394d565b6118c1565b60405161067a919061343e565b60405180910390f35b34801561068f57600080fd5b506106986119d1565b6040516106a5919061343e565b60405180910390f35b3480156106ba57600080fd5b506106d560048036038101906106d0919061329d565b6119d7565b6040516106e29190613245565b60405180910390f35b3480156106f757600080fd5b50610700611b28565b60405161070d919061343e565b60405180910390f35b34801561072257600080fd5b5061073d600480360381019061073891906139a9565b611b39565b60405161074a919061319a565b60405180910390f35b34801561075f57600080fd5b5061077a60048036038101906107759190613790565b611bcd565b005b60007f80ac58cd000000000000000000000000000000000000000000000000000000007bffffffffffffffffffffffffffffffffffffffffffffffffffffffff1916827bffffffffffffffffffffffffffffffffffffffffffffffffffffffff1916148061084757507f5b5e139f000000000000000000000000000000000000000000000000000000007bffffffffffffffffffffffffffffffffffffffffffffffffffffffff1916827bffffffffffffffffffffffffffffffffffffffffffffffffffffffff1916145b80610857575061085682611cc4565b5b9050919050565b60606000805461086d90613a18565b80601f016020809104026020016040519081016040528092919081815260200182805461089990613a18565b80156108e65780601f106108bb576101008083540402835291602001916108e6565b820191906000526020600020905b8154815290600101906020018083116108c957829003601f168201915b5050505050905090565b60006108fb82611d2e565b61093a576040517f08c379a000000000000000000000000000000000000000000000000000000000815260040161093190613abb565b60405180910390fd5b6004600083815260200190815260200160002060009054906101000a900473ffffffffffffffffffffffffffffffffffffffff169050919050565b6000610980826111a2565b90508073ffffffffffffffffffffffffffffffffffffffff168373ffffffffffffffffffffffffffffffffffffffff16036109f0576040517f08c379a00000000000000000000000000000000000000000000000000000000081526004016109e790613b4d565b60405180910390fd5b8073ffffffffffffffffffffffffffffffffffffffff16610a0f611d9a565b73ffffffffffffffffffffffffffffffffffffffff161480610a3e5750610a3d81610a38611d9a565b611b39565b5b610a7d576040517f08c379a0000000000000000000000000000000000000000000000000000000008152600401610a7490613bdf565b60405180910390fd5b610a878383611da2565b505050565b610a946130a6565b600c6000601054815260200190815260200160002060405180608001604052908160008201548152602001600182015481526020016002820160009054906101000a900473ffffffffffffffffffffffffffffffffffffffff1673ffffffffffffffffffffffffffffffffffffffff1673ffffffffffffffffffffffffffffffffffffffff1681526020016002820160149054906101000a900460ff161515151581525050905090565b6000600f80549050905090565b3373ffffffffffffffffffffffffffffffffffffffff16610b6b836111a2565b73ffffffffffffffffffffffffffffffffffffffff1614610bc1576040517f08c379a0000000000000000000000000000000000000000000000000000000008152600401610bb890613c4b565b60405180910390fd5b60001515600c600084815260200190815260200160002060020160149054906101000a900460ff16151514610c2b576040517f08c379a0000000000000000000000000000000000000000000000000000000008152600401610c2290613cb7565b60405180910390fd5b6008543414610c6f576040517f08c379a0000000000000000000000000000000000000000000000000000000008152600401610c6690613d49565b60405180910390fd5b6001600c600084815260200190815260200160002060020160146101000a81548160ff02191690831515021790555080600c600084815260200190815260200160002060010181905550610cc36009611e5b565b5050565b610cd8610cd2611d9a565b82611e71565b610d17576040517f08c379a0000000000000000000000000000000000000000000000000000000008152600401610d0e90613ddb565b60405180910390fd5b610d22838383611f4f565b505050565b6000600c60008381526020019081526020016000206001015490506000610d4d836111a2565b90508073ffffffffffffffffffffffffffffffffffffffff163373ffffffffffffffffffffffffffffffffffffffff1603610dbd576040517f08c379a0000000000000000000000000000000000000000000000000000000008152600401610db490613e47565b60405180910390fd5b813414610dff576040517f08c379a0000000000000000000000000000000000000000000000000000000008152600401610df690613eb3565b60405180910390fd5b6000600c600085815260200190815260200160002060020160146101000a81548160ff021916908315150217905550610e3860096121b5565b82601081905550610e4a813385611f4f565b8073ffffffffffffffffffffffffffffffffffffffff166108fc349081150290604051600060405180830381858888f19350505050158015610e90573d6000803e3d6000fd5b50505050565b6000610ea183611305565b8210610ee2576040517f08c379a0000000000000000000000000000000000000000000000000000000008152600401610ed990613f1f565b60405180910390fd5b600d60008473ffffffffffffffffffffffffffffffffffffffff1673ffffffffffffffffffffffffffffffffffffffff168152602001908152602001600020600083815260200190815260200160002054905092915050565b60606000610f47610b3e565b9050600080610f566009612211565b67ffffffffffffffff811115610f6f57610f6e61361c565b5b604051908082528060200260200182016040528015610fa857816020015b610f956130a6565b815260200190600190039081610f8d5790505b50905060005b838110156110cb576000610fc182611131565b90506000600c60008381526020019081526020016000209050600115158160020160149054906101000a900460ff161515036110b6578060405180608001604052908160008201548152602001600182015481526020016002820160009054906101000a900473ffffffffffffffffffffffffffffffffffffffff1673ffffffffffffffffffffffffffffffffffffffff1673ffffffffffffffffffffffffffffffffffffffff1681526020016002820160149054906101000a900460ff16151515158152505084868151811061109b5761109a613f3f565b5b60200260200101819052506001856110b39190613f9d565b94505b505080806110c390613fd1565b915050610fae565b5080935050505090565b6110f08383836040518060200160405280600081525061185f565b505050565b600060011515600b8360405161110b9190614055565b908152602001604051809103902060009054906101000a900460ff161515149050919050565b600061113b610b3e565b821061117c576040517f08c379a000000000000000000000000000000000000000000000000000000000815260040161117390613f1f565b60405180910390fd5b600f82815481106111905761118f613f3f565b5b90600052602060002001549050919050565b6000806002600084815260200190815260200160002060009054906101000a900473ffffffffffffffffffffffffffffffffffffffff169050600073ffffffffffffffffffffffffffffffffffffffff168173ffffffffffffffffffffffffffffffffffffffff160361124a576040517f08c379a0000000000000000000000000000000000000000000000000000000008152600401611241906140de565b60405180910390fd5b80915050919050565b61125b6130a6565b600c600083815260200190815260200160002060405180608001604052908160008201548152602001600182015481526020016002820160009054906101000a900473ffffffffffffffffffffffffffffffffffffffff1673ffffffffffffffffffffffffffffffffffffffff1673ffffffffffffffffffffffffffffffffffffffff1681526020016002820160149054906101000a900460ff1615151515815250509050919050565b60008073ffffffffffffffffffffffffffffffffffffffff168273ffffffffffffffffffffffffffffffffffffffff1603611375576040517f08c379a000000000000000000000000000000000000000000000000000000000815260040161136c90614170565b60405180910390fd5b600360008373ffffffffffffffffffffffffffffffffffffffff1673ffffffffffffffffffffffffffffffffffffffff168152602001908152602001600020549050919050565b606060006113c933611305565b905060008167ffffffffffffffff8111156113e7576113e661361c565b5b60405190808252806020026020018201604052801561142057816020015b61140d6130a6565b8152602001906001900390816114055790505b50905060005b8281101561151757600061143a3383610e96565b90506000600c600083815260200190815260200160002090508060405180608001604052908160008201548152602001600182015481526020016002820160009054906101000a900473ffffffffffffffffffffffffffffffffffffffff1673ffffffffffffffffffffffffffffffffffffffff1673ffffffffffffffffffffffffffffffffffffffff1681526020016002820160149054906101000a900460ff1615151515815250508484815181106114f7576114f6613f3f565b5b60200260200101819052505050808061150f90613fd1565b915050611426565b50809250505090565b611528611d9a565b73ffffffffffffffffffffffffffffffffffffffff16611546611671565b73ffffffffffffffffffffffffffffffffffffffff161461159c576040517f08c379a0000000000000000000000000000000000000000000000000000000008152600401611593906141dc565b60405180910390fd5b6115a6600061221f565b565b6115b0611d9a565b73ffffffffffffffffffffffffffffffffffffffff166115ce611671565b73ffffffffffffffffffffffffffffffffffffffff1614611624576040517f08c379a000000000000000000000000000000000000000000000000000000000815260040161161b906141dc565b60405180910390fd5b60008111611667576040517f08c379a000000000000000000000000000000000000000000000000000000000815260040161165e90614248565b60405180910390fd5b8060088190555050565b6000600760009054906101000a900473ffffffffffffffffffffffffffffffffffffffff16905090565b6060600180546116aa90613a18565b80601f01602080910402602001604051908101604052809291908181526020018280546116d690613a18565b80156117235780601f106116f857610100808354040283529160200191611723565b820191906000526020600020905b81548152906001019060200180831161170657829003601f168201915b5050505050905090565b3373ffffffffffffffffffffffffffffffffffffffff1661174d826111a2565b73ffffffffffffffffffffffffffffffffffffffff16146117a3576040517f08c379a000000000000000000000000000000000000000000000000000000000815260040161179a90613c4b565b60405180910390fd5b60001515600c600083815260200190815260200160002060020160149054906101000a900460ff1615150361180d576040517f08c379a0000000000000000000000000000000000000000000000000000000008152600401611804906142b4565b60405180910390fd5b6000600c600083815260200190815260200160002060020160146101000a81548160ff02191690831515021790555061184660096121b5565b50565b61185b611854611d9a565b83836122e5565b5050565b61187061186a611d9a565b83611e71565b6118af576040517f08c379a00000000000000000000000000000000000000000000000000000000081526004016118a690613ddb565b60405180910390fd5b6118bb84848484612451565b50505050565b60006118cc836110f5565b1561190c576040517f08c379a000000000000000000000000000000000000000000000000000000000815260040161190390614320565b60405180910390fd5b6008543414611950576040517f08c379a000000000000000000000000000000000000000000000000000000000815260040161194790613d49565b60405180910390fd5b61195a600a611e5b565b6119646009611e5b565b6000611970600a612211565b905061197c33826124ad565b61198681856124cb565b6119908184612538565b6001600b856040516119a29190614055565b908152602001604051809103902060006101000a81548160ff0219169083151502179055508091505092915050565b60085481565b60606119e282611d2e565b611a21576040517f08c379a0000000000000000000000000000000000000000000000000000000008152600401611a18906143b2565b60405180910390fd5b6000600660008481526020019081526020016000208054611a4190613a18565b80601f0160208091040260200160405190810160405280929190818152602001828054611a6d90613a18565b8015611aba5780601f10611a8f57610100808354040283529160200191611aba565b820191906000526020600020905b815481529060010190602001808311611a9d57829003601f168201915b505050505090506000611acb612688565b90506000815103611ae0578192505050611b23565b600082511115611b15578082604051602001611afd9291906143d2565b60405160208183030381529060405292505050611b23565b611b1e8461269f565b925050505b919050565b6000611b346009612211565b905090565b6000600560008473ffffffffffffffffffffffffffffffffffffffff1673ffffffffffffffffffffffffffffffffffffffff16815260200190815260200160002060008373ffffffffffffffffffffffffffffffffffffffff1673ffffffffffffffffffffffffffffffffffffffff16815260200190815260200160002060009054906101000a900460ff16905092915050565b611bd5611d9a565b73ffffffffffffffffffffffffffffffffffffffff16611bf3611671565b73ffffffffffffffffffffffffffffffffffffffff1614611c49576040517f08c379a0000000000000000000000000000000000000000000000000000000008152600401611c40906141dc565b60405180910390fd5b600073ffffffffffffffffffffffffffffffffffffffff168173ffffffffffffffffffffffffffffffffffffffff1603611cb8576040517f08c379a0000000000000000000000000000000000000000000000000000000008152600401611caf90614468565b60405180910390fd5b611cc18161221f565b50565b60007f01ffc9a7000000000000000000000000000000000000000000000000000000007bffffffffffffffffffffffffffffffffffffffffffffffffffffffff1916827bffffffffffffffffffffffffffffffffffffffffffffffffffffffff1916149050919050565b60008073ffffffffffffffffffffffffffffffffffffffff166002600084815260200190815260200160002060009054906101000a900473ffffffffffffffffffffffffffffffffffffffff1673ffffffffffffffffffffffffffffffffffffffff1614159050919050565b600033905090565b816004600083815260200190815260200160002060006101000a81548173ffffffffffffffffffffffffffffffffffffffff021916908373ffffffffffffffffffffffffffffffffffffffff160217905550808273ffffffffffffffffffffffffffffffffffffffff16611e15836111a2565b73ffffffffffffffffffffffffffffffffffffffff167f8c5be1e5ebec7d5bd14f71427d1e84f3dd0314c0f7b2291e5b200ac8c7c3b92560405160405180910390a45050565b6001816000016000828254019250508190555050565b6000611e7c82611d2e565b611ebb576040517f08c379a0000000000000000000000000000000000000000000000000000000008152600401611eb2906144fa565b60405180910390fd5b6000611ec6836111a2565b90508073ffffffffffffffffffffffffffffffffffffffff168473ffffffffffffffffffffffffffffffffffffffff161480611f3557508373ffffffffffffffffffffffffffffffffffffffff16611f1d846108f0565b73ffffffffffffffffffffffffffffffffffffffff16145b80611f465750611f458185611b39565b5b91505092915050565b8273ffffffffffffffffffffffffffffffffffffffff16611f6f826111a2565b73ffffffffffffffffffffffffffffffffffffffff1614611fc5576040517f08c379a0000000000000000000000000000000000000000000000000000000008152600401611fbc9061458c565b60405180910390fd5b600073ffffffffffffffffffffffffffffffffffffffff168273ffffffffffffffffffffffffffffffffffffffff1603612034576040517f08c379a000000000000000000000000000000000000000000000000000000000815260040161202b9061461e565b60405180910390fd5b61203f838383612746565b61204a600082611da2565b6001600360008573ffffffffffffffffffffffffffffffffffffffff1673ffffffffffffffffffffffffffffffffffffffff168152602001908152602001600020600082825461209a919061463e565b925050819055506001600360008473ffffffffffffffffffffffffffffffffffffffff1673ffffffffffffffffffffffffffffffffffffffff16815260200190815260200160002060008282546120f19190613f9d565b92505081905550816002600083815260200190815260200160002060006101000a81548173ffffffffffffffffffffffffffffffffffffffff021916908373ffffffffffffffffffffffffffffffffffffffff160217905550808273ffffffffffffffffffffffffffffffffffffffff168473ffffffffffffffffffffffffffffffffffffffff167fddf252ad1be2c89b69c2b068fc378daa952ba7f163c4a11628f55a4df523b3ef60405160405180910390a46121b0838383612858565b505050565b60008160000154905060008111612201576040517f08c379a00000000000000000000000000000000000000000000000000000000081526004016121f8906146be565b60405180910390fd5b6001810382600001819055505050565b600081600001549050919050565b6000600760009054906101000a900473ffffffffffffffffffffffffffffffffffffffff16905081600760006101000a81548173ffffffffffffffffffffffffffffffffffffffff021916908373ffffffffffffffffffffffffffffffffffffffff1602179055508173ffffffffffffffffffffffffffffffffffffffff168173ffffffffffffffffffffffffffffffffffffffff167f8be0079c531659141344cd1fd0a4f28419497f9722a3daafe3b4186f6b6457e060405160405180910390a35050565b8173ffffffffffffffffffffffffffffffffffffffff168373ffffffffffffffffffffffffffffffffffffffff1603612353576040517f08c379a000000000000000000000000000000000000000000000000000000000815260040161234a9061472a565b60405180910390fd5b80600560008573ffffffffffffffffffffffffffffffffffffffff1673ffffffffffffffffffffffffffffffffffffffff16815260200190815260200160002060008473ffffffffffffffffffffffffffffffffffffffff1673ffffffffffffffffffffffffffffffffffffffff16815260200190815260200160002060006101000a81548160ff0219169083151502179055508173ffffffffffffffffffffffffffffffffffffffff168373ffffffffffffffffffffffffffffffffffffffff167f17307eab39ab6107e8899845ad3d59bd9653f200f220920489ca2b5937696c3183604051612444919061319a565b60405180910390a3505050565b61245c848484611f4f565b6124688484848461285d565b6124a7576040517f08c379a000000000000000000000000000000000000000000000000000000000815260040161249e906147bc565b60405180910390fd5b50505050565b6124c78282604051806020016040528060008152506129e4565b5050565b6124d482611d2e565b612513576040517f08c379a000000000000000000000000000000000000000000000000000000000815260040161250a9061484e565b60405180910390fd5b806006600084815260200190815260200160002090816125339190614a1a565b505050565b6000811161257b576040517f08c379a000000000000000000000000000000000000000000000000000000000815260040161257290614248565b60405180910390fd5b60405180608001604052808381526020018281526020013373ffffffffffffffffffffffffffffffffffffffff16815260200160011515815250600c6000848152602001908152602001600020600082015181600001556020820151816001015560408201518160020160006101000a81548173ffffffffffffffffffffffffffffffffffffffff021916908373ffffffffffffffffffffffffffffffffffffffff16021790555060608201518160020160146101000a81548160ff0219169083151502179055509050507f470031062672bc0246e132c723a729c4676710ec663a29e86c88678032daddea828233600160405161267c9493929190614aec565b60405180910390a15050565b606060405180602001604052806000815250905090565b60606126aa82611d2e565b6126e9576040517f08c379a00000000000000000000000000000000000000000000000000000000081526004016126e090614ba3565b60405180910390fd5b60006126f3612688565b90506000815111612713576040518060200160405280600081525061273e565b8061271d84612a3f565b60405160200161272e9291906143d2565b6040516020818303038152906040525b915050919050565b612751838383612b9f565b600073ffffffffffffffffffffffffffffffffffffffff168373ffffffffffffffffffffffffffffffffffffffff16036127935761278e81612ba4565b6127d2565b8173ffffffffffffffffffffffffffffffffffffffff168373ffffffffffffffffffffffffffffffffffffffff16146127d1576127d08382612bed565b5b5b600073ffffffffffffffffffffffffffffffffffffffff168273ffffffffffffffffffffffffffffffffffffffff16036128145761280f81612d5a565b612853565b8273ffffffffffffffffffffffffffffffffffffffff168273ffffffffffffffffffffffffffffffffffffffff1614612852576128518282612e2b565b5b5b505050565b505050565b600061287e8473ffffffffffffffffffffffffffffffffffffffff16612eaa565b156129d7578373ffffffffffffffffffffffffffffffffffffffff1663150b7a026128a7611d9a565b8786866040518563ffffffff1660e01b81526004016128c99493929190614c18565b6020604051808303816000875af192505050801561290557506040513d601f19601f820116820180604052508101906129029190614c79565b60015b612987573d8060008114612935576040519150601f19603f3d011682016040523d82523d6000602084013e61293a565b606091505b50600081510361297f576040517f08c379a0000000000000000000000000000000000000000000000000000000008152600401612976906147bc565b60405180910390fd5b805181602001fd5b63150b7a0260e01b7bffffffffffffffffffffffffffffffffffffffffffffffffffffffff1916817bffffffffffffffffffffffffffffffffffffffffffffffffffffffff1916149150506129dc565b600190505b949350505050565b6129ee8383612ecd565b6129fb600084848461285d565b612a3a576040517f08c379a0000000000000000000000000000000000000000000000000000000008152600401612a31906147bc565b60405180910390fd5b505050565b606060008203612a86576040518060400160405280600181526020017f30000000000000000000000000000000000000000000000000000000000000008152509050612b9a565b600082905060005b60008214612ab8578080612aa190613fd1565b915050600a82612ab19190614cd5565b9150612a8e565b60008167ffffffffffffffff811115612ad457612ad361361c565b5b6040519080825280601f01601f191660200182016040528015612b065781602001600182028036833780820191505090505b5090505b60008514612b9357600182612b1f919061463e565b9150600a85612b2e9190614d06565b6030612b3a9190613f9d565b60f81b818381518110612b5057612b4f613f3f565b5b60200101907effffffffffffffffffffffffffffffffffffffffffffffffffffffffffffff1916908160001a905350600a85612b8c9190614cd5565b9450612b0a565b8093505050505b919050565b505050565b600f805490506011600083815260200190815260200160002081905550600f81908060018154018082558091505060019003906000526020600020016000909190919091505550565b60006001612bfa84611305565b612c04919061463e565b90506000600e6000848152602001908152602001600020549050818114612ce9576000600d60008673ffffffffffffffffffffffffffffffffffffffff1673ffffffffffffffffffffffffffffffffffffffff168152602001908152602001600020600084815260200190815260200160002054905080600d60008773ffffffffffffffffffffffffffffffffffffffff1673ffffffffffffffffffffffffffffffffffffffff16815260200190815260200160002060008481526020019081526020016000208190555081600e600083815260200190815260200160002081905550505b600e600084815260200190815260200160002060009055600d60008573ffffffffffffffffffffffffffffffffffffffff1673ffffffffffffffffffffffffffffffffffffffff16815260200190815260200160002060008381526020019081526020016000206000905550505050565b60006001600f80549050612d6e919061463e565b90506000601160008481526020019081526020016000205490506000600f8381548110612d9e57612d9d613f3f565b5b9060005260206000200154905080600f8381548110612dc057612dbf613f3f565b5b90600052602060002001819055508160116000838152602001908152602001600020819055506011600085815260200190815260200160002060009055600f805480612e0f57612e0e614d37565b5b6001900381819060005260206000200160009055905550505050565b6000612e3683611305565b905081600d60008573ffffffffffffffffffffffffffffffffffffffff1673ffffffffffffffffffffffffffffffffffffffff16815260200190815260200160002060008381526020019081526020016000208190555080600e600084815260200190815260200160002081905550505050565b6000808273ffffffffffffffffffffffffffffffffffffffff163b119050919050565b600073ffffffffffffffffffffffffffffffffffffffff168273ffffffffffffffffffffffffffffffffffffffff1603612f3c576040517f08c379a0000000000000000000000000000000000000000000000000000000008152600401612f3390614db2565b60405180910390fd5b612f4581611d2e565b15612f85576040517f08c379a0000000000000000000000000000000000000000000000000000000008152600401612f7c90614e1e565b60405180910390fd5b612f9160008383612746565b6001600360008473ffffffffffffffffffffffffffffffffffffffff1673ffffffffffffffffffffffffffffffffffffffff1681526020019081526020016000206000828254612fe19190613f9d565b92505081905550816002600083815260200190815260200160002060006101000a81548173ffffffffffffffffffffffffffffffffffffffff021916908373ffffffffffffffffffffffffffffffffffffffff160217905550808273ffffffffffffffffffffffffffffffffffffffff16600073ffffffffffffffffffffffffffffffffffffffff167fddf252ad1be2c89b69c2b068fc378daa952ba7f163c4a11628f55a4df523b3ef60405160405180910390a46130a260008383612858565b5050565b60405180608001604052806000815260200160008152602001600073ffffffffffffffffffffffffffffffffffffffff1681526020016000151581525090565b6000604051905090565b600080fd5b600080fd5b60007fffffffff0000000000000000000000000000000000000000000000000000000082169050919050565b61312f816130fa565b811461313a57600080fd5b50565b60008135905061314c81613126565b92915050565b600060208284031215613168576131676130f0565b5b60006131768482850161313d565b91505092915050565b60008115159050919050565b6131948161317f565b82525050565b60006020820190506131af600083018461318b565b92915050565b600081519050919050565b600082825260208201905092915050565b60005b838110156131ef5780820151818401526020810190506131d4565b60008484015250505050565b6000601f19601f8301169050919050565b6000613217826131b5565b61322181856131c0565b93506132318185602086016131d1565b61323a816131fb565b840191505092915050565b6000602082019050818103600083015261325f818461320c565b905092915050565b6000819050919050565b61327a81613267565b811461328557600080fd5b50565b60008135905061329781613271565b92915050565b6000602082840312156132b3576132b26130f0565b5b60006132c184828501613288565b91505092915050565b600073ffffffffffffffffffffffffffffffffffffffff82169050919050565b60006132f5826132ca565b9050919050565b613305816132ea565b82525050565b600060208201905061332060008301846132fc565b92915050565b61332f816132ea565b811461333a57600080fd5b50565b60008135905061334c81613326565b92915050565b60008060408385031215613369576133686130f0565b5b60006133778582860161333d565b925050602061338885828601613288565b9150509250929050565b61339b81613267565b82525050565b6133aa816132ea565b82525050565b6133b98161317f565b82525050565b6080820160008201516133d56000850182613392565b5060208201516133e86020850182613392565b5060408201516133fb60408501826133a1565b50606082015161340e60608501826133b0565b50505050565b600060808201905061342960008301846133bf565b92915050565b61343881613267565b82525050565b6000602082019050613453600083018461342f565b92915050565b600080604083850312156134705761346f6130f0565b5b600061347e85828601613288565b925050602061348f85828601613288565b9150509250929050565b6000806000606084860312156134b2576134b16130f0565b5b60006134c08682870161333d565b93505060206134d18682870161333d565b92505060406134e286828701613288565b9150509250925092565b600081519050919050565b600082825260208201905092915050565b6000819050602082019050919050565b60808201600082015161352e6000850182613392565b5060208201516135416020850182613392565b50604082015161355460408501826133a1565b50606082015161356760608501826133b0565b50505050565b60006135798383613518565b60808301905092915050565b6000602082019050919050565b600061359d826134ec565b6135a781856134f7565b93506135b283613508565b8060005b838110156135e35781516135ca888261356d565b97506135d583613585565b9250506001810190506135b6565b5085935050505092915050565b6000602082019050818103600083015261360a8184613592565b905092915050565b600080fd5b600080fd5b7f4e487b7100000000000000000000000000000000000000000000000000000000600052604160045260246000fd5b613654826131fb565b810181811067ffffffffffffffff821117156136735761367261361c565b5b80604052505050565b60006136866130e6565b9050613692828261364b565b919050565b600067ffffffffffffffff8211156136b2576136b161361c565b5b6136bb826131fb565b9050602081019050919050565b82818337600083830152505050565b60006136ea6136e584613697565b61367c565b90508281526020810184848401111561370657613705613617565b5b6137118482856136c8565b509392505050565b600082601f83011261372e5761372d613612565b5b813561373e8482602086016136d7565b91505092915050565b60006020828403121561375d5761375c6130f0565b5b600082013567ffffffffffffffff81111561377b5761377a6130f5565b5b61378784828501613719565b91505092915050565b6000602082840312156137a6576137a56130f0565b5b60006137b48482850161333d565b91505092915050565b6137c68161317f565b81146137d157600080fd5b50565b6000813590506137e3816137bd565b92915050565b60008060408385031215613800576137ff6130f0565b5b600061380e8582860161333d565b925050602061381f858286016137d4565b9150509250929050565b600067ffffffffffffffff8211156138445761384361361c565b5b61384d826131fb565b9050602081019050919050565b600061386d61386884613829565b61367c565b90508281526020810184848401111561388957613888613617565b5b6138948482856136c8565b509392505050565b600082601f8301126138b1576138b0613612565b5b81356138c184826020860161385a565b91505092915050565b600080600080608085870312156138e4576138e36130f0565b5b60006138f28782880161333d565b94505060206139038782880161333d565b935050604061391487828801613288565b925050606085013567ffffffffffffffff811115613935576139346130f5565b5b6139418782880161389c565b91505092959194509250565b60008060408385031215613964576139636130f0565b5b600083013567ffffffffffffffff811115613982576139816130f5565b5b61398e85828601613719565b925050602061399f85828601613288565b9150509250929050565b600080604083850312156139c0576139bf6130f0565b5b60006139ce8582860161333d565b92505060206139df8582860161333d565b9150509250929050565b7f4e487b7100000000000000000000000000000000000000000000000000000000600052602260045260246000fd5b60006002820490506001821680613a3057607f821691505b602082108103613a4357613a426139e9565b5b50919050565b7f4552433732313a20617070726f76656420717565727920666f72206e6f6e657860008201527f697374656e7420746f6b656e0000000000000000000000000000000000000000602082015250565b6000613aa5602c836131c0565b9150613ab082613a49565b604082019050919050565b60006020820190508181036000830152613ad481613a98565b9050919050565b7f4552433732313a20617070726f76616c20746f2063757272656e74206f776e6560008201527f7200000000000000000000000000000000000000000000000000000000000000602082015250565b6000613b376021836131c0565b9150613b4282613adb565b604082019050919050565b60006020820190508181036000830152613b6681613b2a565b9050919050565b7f4552433732313a20617070726f76652063616c6c6572206973206e6f74206f7760008201527f6e6572206e6f7220617070726f76656420666f7220616c6c0000000000000000602082015250565b6000613bc96038836131c0565b9150613bd482613b6d565b604082019050919050565b60006020820190508181036000830152613bf881613bbc565b9050919050565b7f596f7520617265206e6f74206f776e6572206f662074686973206e6674000000600082015250565b6000613c35601d836131c0565b9150613c4082613bff565b602082019050919050565b60006020820190508181036000830152613c6481613c28565b9050919050565b7f4974656d20697320616c7265616479206f6e2073616c65000000000000000000600082015250565b6000613ca16017836131c0565b9150613cac82613c6b565b602082019050919050565b60006020820190508181036000830152613cd081613c94565b9050919050565b7f5072696365206d75737420626520657175616c20746f206c697374696e67207060008201527f7269636500000000000000000000000000000000000000000000000000000000602082015250565b6000613d336024836131c0565b9150613d3e82613cd7565b604082019050919050565b60006020820190508181036000830152613d6281613d26565b9050919050565b7f4552433732313a207472616e736665722063616c6c6572206973206e6f74206f60008201527f776e6572206e6f7220617070726f766564000000000000000000000000000000602082015250565b6000613dc56031836131c0565b9150613dd082613d69565b604082019050919050565b60006020820190508181036000830152613df481613db8565b9050919050565b7f596f7520616c7265616479206f776e2074686973204e46540000000000000000600082015250565b6000613e316018836131c0565b9150613e3c82613dfb565b602082019050919050565b60006020820190508181036000830152613e6081613e24565b9050919050565b7f506c65617365207375626d6974207468652061736b696e672070726963650000600082015250565b6000613e9d601e836131c0565b9150613ea882613e67565b602082019050919050565b60006020820190508181036000830152613ecc81613e90565b9050919050565b7f496e646578206f7574206f6620626f756e647300000000000000000000000000600082015250565b6000613f096013836131c0565b9150613f1482613ed3565b602082019050919050565b60006020820190508181036000830152613f3881613efc565b9050919050565b7f4e487b7100000000000000000000000000000000000000000000000000000000600052603260045260246000fd5b7f4e487b7100000000000000000000000000000000000000000000000000000000600052601160045260246000fd5b6000613fa882613267565b9150613fb383613267565b9250828201905080821115613fcb57613fca613f6e565b5b92915050565b6000613fdc82613267565b91507fffffffffffffffffffffffffffffffffffffffffffffffffffffffffffffffff820361400e5761400d613f6e565b5b600182019050919050565b600081905092915050565b600061402f826131b5565b6140398185614019565b93506140498185602086016131d1565b80840191505092915050565b60006140618284614024565b915081905092915050565b7f4552433732313a206f776e657220717565727920666f72206e6f6e657869737460008201527f656e7420746f6b656e0000000000000000000000000000000000000000000000602082015250565b60006140c86029836131c0565b91506140d38261406c565b604082019050919050565b600060208201905081810360008301526140f7816140bb565b9050919050565b7f4552433732313a2062616c616e636520717565727920666f7220746865207a6560008201527f726f206164647265737300000000000000000000000000000000000000000000602082015250565b600061415a602a836131c0565b9150614165826140fe565b604082019050919050565b600060208201905081810360008301526141898161414d565b9050919050565b7f4f776e61626c653a2063616c6c6572206973206e6f7420746865206f776e6572600082015250565b60006141c66020836131c0565b91506141d182614190565b602082019050919050565b600060208201905081810360008301526141f5816141b9565b9050919050565b7f5072696365206d757374206265206174206c6561737420312077656900000000600082015250565b6000614232601c836131c0565b915061423d826141fc565b602082019050919050565b6000602082019050818103600083015261426181614225565b9050919050565b7f4974656d20697320616c726561647920756e2d6c697374656400000000000000600082015250565b600061429e6019836131c0565b91506142a982614268565b602082019050919050565b600060208201905081810360008301526142cd81614291565b9050919050565b7f546f6b656e2055524920616c7265616479206578697374730000000000000000600082015250565b600061430a6018836131c0565b9150614315826142d4565b602082019050919050565b60006020820190508181036000830152614339816142fd565b9050919050565b7f45524337323155524953746f726167653a2055524920717565727920666f722060008201527f6e6f6e6578697374656e7420746f6b656e000000000000000000000000000000602082015250565b600061439c6031836131c0565b91506143a782614340565b604082019050919050565b600060208201905081810360008301526143cb8161438f565b9050919050565b60006143de8285614024565b91506143ea8284614024565b91508190509392505050565b7f4f776e61626c653a206e6577206f776e657220697320746865207a65726f206160008201527f6464726573730000000000000000000000000000000000000000000000000000602082015250565b60006144526026836131c0565b915061445d826143f6565b604082019050919050565b6000602082019050818103600083015261448181614445565b9050919050565b7f4552433732313a206f70657261746f7220717565727920666f72206e6f6e657860008201527f697374656e7420746f6b656e0000000000000000000000000000000000000000602082015250565b60006144e4602c836131c0565b91506144ef82614488565b604082019050919050565b60006020820190508181036000830152614513816144d7565b9050919050565b7f4552433732313a207472616e736665722066726f6d20696e636f72726563742060008201527f6f776e6572000000000000000000000000000000000000000000000000000000602082015250565b60006145766025836131c0565b91506145818261451a565b604082019050919050565b600060208201905081810360008301526145a581614569565b9050919050565b7f4552433732313a207472616e7366657220746f20746865207a65726f2061646460008201527f7265737300000000000000000000000000000000000000000000000000000000602082015250565b60006146086024836131c0565b9150614613826145ac565b604082019050919050565b60006020820190508181036000830152614637816145fb565b9050919050565b600061464982613267565b915061465483613267565b925082820390508181111561466c5761466b613f6e565b5b92915050565b7f436f756e7465723a2064656372656d656e74206f766572666c6f770000000000600082015250565b60006146a8601b836131c0565b91506146b382614672565b602082019050919050565b600060208201905081810360008301526146d78161469b565b9050919050565b7f4552433732313a20617070726f766520746f2063616c6c657200000000000000600082015250565b60006147146019836131c0565b915061471f826146de565b602082019050919050565b6000602082019050818103600083015261474381614707565b9050919050565b7f4552433732313a207472616e7366657220746f206e6f6e20455243373231526560008201527f63656976657220696d706c656d656e7465720000000000000000000000000000602082015250565b60006147a66032836131c0565b91506147b18261474a565b604082019050919050565b600060208201905081810360008301526147d581614799565b9050919050565b7f45524337323155524953746f726167653a2055524920736574206f66206e6f6e60008201527f6578697374656e7420746f6b656e000000000000000000000000000000000000602082015250565b6000614838602e836131c0565b9150614843826147dc565b604082019050919050565b600060208201905081810360008301526148678161482b565b9050919050565b60008190508160005260206000209050919050565b60006020601f8301049050919050565b600082821b905092915050565b6000600883026148d07fffffffffffffffffffffffffffffffffffffffffffffffffffffffffffffffff82614893565b6148da8683614893565b95508019841693508086168417925050509392505050565b6000819050919050565b600061491761491261490d84613267565b6148f2565b613267565b9050919050565b6000819050919050565b614931836148fc565b61494561493d8261491e565b8484546148a0565b825550505050565b600090565b61495a61494d565b614965818484614928565b505050565b5b818110156149895761497e600082614952565b60018101905061496b565b5050565b601f8211156149ce5761499f8161486e565b6149a884614883565b810160208510156149b7578190505b6149cb6149c385614883565b83018261496a565b50505b505050565b600082821c905092915050565b60006149f1600019846008026149d3565b1980831691505092915050565b6000614a0a83836149e0565b9150826002028217905092915050565b614a23826131b5565b67ffffffffffffffff811115614a3c57614a3b61361c565b5b614a468254613a18565b614a5182828561498d565b600060209050601f831160018114614a845760008415614a72578287015190505b614a7c85826149fe565b865550614ae4565b601f198416614a928661486e565b60005b82811015614aba57848901518255600182019150602085019450602081019050614a95565b86831015614ad75784890151614ad3601f8916826149e0565b8355505b6001600288020188555050505b505050505050565b6000608082019050614b01600083018761342f565b614b0e602083018661342f565b614b1b60408301856132fc565b614b28606083018461318b565b95945050505050565b7f4552433732314d657461646174613a2055524920717565727920666f72206e6f60008201527f6e6578697374656e7420746f6b656e0000000000000000000000000000000000602082015250565b6000614b8d602f836131c0565b9150614b9882614b31565b604082019050919050565b60006020820190508181036000830152614bbc81614b80565b9050919050565b600081519050919050565b600082825260208201905092915050565b6000614bea82614bc3565b614bf48185614bce565b9350614c048185602086016131d1565b614c0d816131fb565b840191505092915050565b6000608082019050614c2d60008301876132fc565b614c3a60208301866132fc565b614c47604083018561342f565b8181036060830152614c598184614bdf565b905095945050505050565b600081519050614c7381613126565b92915050565b600060208284031215614c8f57614c8e6130f0565b5b6000614c9d84828501614c64565b91505092915050565b7f4e487b7100000000000000000000000000000000000000000000000000000000600052601260045260246000fd5b6000614ce082613267565b9150614ceb83613267565b925082614cfb57614cfa614ca6565b5b828204905092915050565b6000614d1182613267565b9150614d1c83613267565b925082614d2c57614d2b614ca6565b5b828206905092915050565b7f4e487b7100000000000000000000000000000000000000000000000000000000600052603160045260246000fd5b7f4552433732313a206d696e7420746f20746865207a65726f2061646472657373600082015250565b6000614d9c6020836131c0565b9150614da782614d66565b602082019050919050565b60006020820190508181036000830152614dcb81614d8f565b9050919050565b7f4552433732313a20746f6b656e20616c7265616479206d696e74656400000000600082015250565b6000614e08601c836131c0565b9150614e1382614dd2565b602082019050919050565b60006020820190508181036000830152614e3781614dfb565b905091905056fea2646970667358221220f2a64a8bbd6a84a5c7ae9643e3bbfa9165da7f4ebec133fcad9b9c1c19489e4f64736f6c63430008130033",
  "immutableReferences": {},
  "source": "// SPDX-License-Identifier: MIT\npragma solidity >=0.4.22 <0.9.0;\n\nimport \"@openzeppelin/contracts/token/ERC721/extensions/ERC721URIStorage.sol\";\nimport \"@openzeppelin/contracts/utils/Counters.sol\";\nimport \"@openzeppelin/contracts/access/Ownable.sol\";\n\ncontract NftMarket is ERC721URIStorage, Ownable {\n    using Counters for Counters.Counter;\n\n    struct NftItem {\n        uint tokenId;\n        uint price;\n        address creator;\n        bool isListed;\n    }\n\n    uint public listingPrice = 0.025 ether;\n\n    Counters.Counter private _listedItems;\n    Counters.Counter private _tokenIds;\n\n    mapping(string => bool) private _usedTokenURIs;\n    mapping(uint => NftItem) private _idToNftItem;\n\n    mapping(address => mapping(uint => uint)) private _ownedTokens;\n    mapping(uint => uint) private _idToOwnedIndex;\n\n    uint256[] private _allNfts;\n\n    uint256 private _lastBoughtNFTTokenId;\n\n    mapping(uint => uint) private _idToNftIndex;\n\n    event NftItemCreated(\n        uint tokenId,\n        uint price,\n        address creator,\n        bool isListed\n    );\n\n    constructor() ERC721(\"PokemonNFT\", \"PNFT\") {}\n\n    function setListingPrice(uint newPrice) external onlyOwner {\n        require(newPrice > 0, \"Price must be at least 1 wei\");\n        listingPrice = newPrice;\n    }\n\n    function getNftItem(uint tokenId) public view returns (NftItem memory) {\n        return _idToNftItem[tokenId];\n    }\n\n    function getLastBoughtNFT() public view returns (NftItem memory) {\n        return _idToNftItem[_lastBoughtNFTTokenId];\n    }\n\n    function listedItemsCount() public view returns (uint) {\n        return _listedItems.current();\n    }\n\n    function tokenURIExists(string memory tokenURI) public view returns (bool) {\n        return _usedTokenURIs[tokenURI] == true;\n    }\n\n    function totalSupply() public view returns (uint) {\n        return _allNfts.length;\n    }\n\n    function tokenByIndex(uint index) public view returns (uint) {\n        require(index < totalSupply(), \"Index out of bounds\");\n        return _allNfts[index];\n    }\n\n    function tokenOfOwnerByIndex(\n        address owner,\n        uint index\n    ) public view returns (uint) {\n        require(index < ERC721.balanceOf(owner), \"Index out of bounds\");\n        return _ownedTokens[owner][index];\n    }\n\n    function getAllNftsOnSale() public view returns (NftItem[] memory) {\n        uint allItemsCounts = totalSupply();\n        uint currentIndex = 0;\n        NftItem[] memory items = new NftItem[](_listedItems.current());\n\n        for (uint i = 0; i < allItemsCounts; i++) {\n            uint tokenId = tokenByIndex(i);\n            NftItem storage item = _idToNftItem[tokenId];\n\n            if (item.isListed == true) {\n                items[currentIndex] = item;\n                currentIndex += 1;\n            }\n        }\n\n        return items;\n    }\n\n    function getOwnedNfts() public view returns (NftItem[] memory) {\n        uint ownedItemsCount = ERC721.balanceOf(msg.sender);\n        NftItem[] memory items = new NftItem[](ownedItemsCount);\n\n        for (uint i = 0; i < ownedItemsCount; i++) {\n            uint tokenId = tokenOfOwnerByIndex(msg.sender, i);\n            NftItem storage item = _idToNftItem[tokenId];\n            items[i] = item;\n        }\n\n        return items;\n    }\n\n    function mintToken(\n        string memory tokenURI,\n        uint price\n    ) public payable returns (uint) {\n        require(!tokenURIExists(tokenURI), \"Token URI already exists\");\n        require(\n            msg.value == listingPrice,\n            \"Price must be equal to listing price\"\n        );\n\n        _tokenIds.increment();\n        _listedItems.increment();\n\n        uint newTokenId = _tokenIds.current();\n\n        _safeMint(msg.sender, newTokenId);\n        _setTokenURI(newTokenId, tokenURI);\n        _createNftItem(newTokenId, price);\n        _usedTokenURIs[tokenURI] = true;\n\n        return newTokenId;\n    }\n\n    function buyNft(uint tokenId) public payable {\n        uint price = _idToNftItem[tokenId].price;\n        address owner = ERC721.ownerOf(tokenId);\n\n        require(msg.sender != owner, \"You already own this NFT\");\n        require(msg.value == price, \"Please submit the asking price\");\n\n        _idToNftItem[tokenId].isListed = false;\n        _listedItems.decrement();\n\n        _lastBoughtNFTTokenId = tokenId;\n\n        _transfer(owner, msg.sender, tokenId);\n        payable(owner).transfer(msg.value);\n    }\n\n    function placeNftOnSale(uint tokenId, uint newPrice) public payable {\n        require(\n            ERC721.ownerOf(tokenId) == msg.sender,\n            \"You are not owner of this nft\"\n        );\n        require(\n            _idToNftItem[tokenId].isListed == false,\n            \"Item is already on sale\"\n        );\n        require(\n            msg.value == listingPrice,\n            \"Price must be equal to listing price\"\n        );\n\n        _idToNftItem[tokenId].isListed = true;\n        _idToNftItem[tokenId].price = newPrice;\n        _listedItems.increment();\n    }\n\n    function unlistNft(uint tokenId) public payable {\n        require(\n            ERC721.ownerOf(tokenId) == msg.sender,\n            \"You are not owner of this nft\"\n        );\n        require(\n            _idToNftItem[tokenId].isListed != false,\n            \"Item is already un-listed\"\n        );\n\n        _idToNftItem[tokenId].isListed = false;\n        _listedItems.decrement();\n    }\n\n    function _createNftItem(uint tokenId, uint price) private {\n        require(price > 0, \"Price must be at least 1 wei\");\n\n        _idToNftItem[tokenId] = NftItem(tokenId, price, msg.sender, true);\n\n        emit NftItemCreated(tokenId, price, msg.sender, true);\n    }\n\n    function _beforeTokenTransfer(\n        address from,\n        address to,\n        uint tokenId\n    ) internal virtual override {\n        super._beforeTokenTransfer(from, to, tokenId);\n\n        if (from == address(0)) {\n            _addTokenToAllTokensEnumeration(tokenId);\n        } else if (from != to) {\n            _removeTokenFromOwnerEnumeration(from, tokenId);\n        }\n\n        if (to == address(0)) {\n            _removeTokenFromAllTokensEnumeration(tokenId);\n        } else if (to != from) {\n            _addTokenToOwnerEnumeration(to, tokenId);\n        }\n    }\n\n    function _addTokenToAllTokensEnumeration(uint tokenId) private {\n        _idToNftIndex[tokenId] = _allNfts.length;\n        _allNfts.push(tokenId);\n    }\n\n    function _addTokenToOwnerEnumeration(address to, uint tokenId) private {\n        uint length = ERC721.balanceOf(to);\n        _ownedTokens[to][length] = tokenId;\n        _idToOwnedIndex[tokenId] = length;\n    }\n\n    function _removeTokenFromOwnerEnumeration(\n        address from,\n        uint tokenId\n    ) private {\n        uint lastTokenIndex = ERC721.balanceOf(from) - 1;\n        uint tokenIndex = _idToOwnedIndex[tokenId];\n\n        if (tokenIndex != lastTokenIndex) {\n            uint lastTokenId = _ownedTokens[from][lastTokenIndex];\n\n            _ownedTokens[from][tokenIndex] = lastTokenId;\n            _idToOwnedIndex[lastTokenId] = tokenIndex;\n        }\n\n        delete _idToOwnedIndex[tokenId];\n        delete _ownedTokens[from][lastTokenIndex];\n    }\n\n    function _removeTokenFromAllTokensEnumeration(uint tokenId) private {\n        uint lastTokenIndex = _allNfts.length - 1;\n        uint tokenIndex = _idToNftIndex[tokenId];\n        uint lastTokenId = _allNfts[lastTokenIndex];\n\n        _allNfts[tokenIndex] = lastTokenId;\n        _idToNftIndex[lastTokenId] = tokenIndex;\n\n        delete _idToNftIndex[tokenId];\n        _allNfts.pop();\n    }\n}\n",
  "sourcePath": "E:\\Blockchain\\nft-marketplace\\contracts\\NftMarket.sol",
  "compiler": {
    "name": "solc",
    "version": "0.8.19+commit.7dd6d404.Emscripten.clang"
  },
  "schemaVersion": "3.4.13",
  "updatedAt": "2023-05-15T13:16:14.769Z",
  "networkType": "ethereum",
  "devdoc": {
    "events": {
      "Approval(address,address,uint256)": {
        "details": "Emitted when `owner` enables `approved` to manage the `tokenId` token."
      },
      "ApprovalForAll(address,address,bool)": {
        "details": "Emitted when `owner` enables or disables (`approved`) `operator` to manage all of its assets."
      },
      "Transfer(address,address,uint256)": {
        "details": "Emitted when `tokenId` token is transferred from `from` to `to`."
      }
    },
    "kind": "dev",
    "methods": {
      "approve(address,uint256)": {
        "details": "See {IERC721-approve}."
      },
      "balanceOf(address)": {
        "details": "See {IERC721-balanceOf}."
      },
      "getApproved(uint256)": {
        "details": "See {IERC721-getApproved}."
      },
      "isApprovedForAll(address,address)": {
        "details": "See {IERC721-isApprovedForAll}."
      },
      "name()": {
        "details": "See {IERC721Metadata-name}."
      },
      "owner()": {
        "details": "Returns the address of the current owner."
      },
      "ownerOf(uint256)": {
        "details": "See {IERC721-ownerOf}."
      },
      "renounceOwnership()": {
        "details": "Leaves the contract without owner. It will not be possible to call `onlyOwner` functions anymore. Can only be called by the current owner. NOTE: Renouncing ownership will leave the contract without an owner, thereby removing any functionality that is only available to the owner."
      },
      "safeTransferFrom(address,address,uint256)": {
        "details": "See {IERC721-safeTransferFrom}."
      },
      "safeTransferFrom(address,address,uint256,bytes)": {
        "details": "See {IERC721-safeTransferFrom}."
      },
      "setApprovalForAll(address,bool)": {
        "details": "See {IERC721-setApprovalForAll}."
      },
      "supportsInterface(bytes4)": {
        "details": "See {IERC165-supportsInterface}."
      },
      "symbol()": {
        "details": "See {IERC721Metadata-symbol}."
      },
      "tokenURI(uint256)": {
        "details": "See {IERC721Metadata-tokenURI}."
      },
      "transferFrom(address,address,uint256)": {
        "details": "See {IERC721-transferFrom}."
      },
      "transferOwnership(address)": {
        "details": "Transfers ownership of the contract to a new account (`newOwner`). Can only be called by the current owner."
      }
    },
    "version": 1
  },
  "userdoc": {
    "kind": "user",
    "methods": {},
    "version": 1
  }
}